{
  "_format": "hh-sol-artifact-1",
  "contractName": "Integers",
  "sourceName": "contracts/Integers.sol",
  "abi": [
    {
      "inputs": [],
      "name": "getnumber",
      "outputs": [
        {
          "internalType": "uint256",
          "name": "",
          "type": "uint256"
        }
      ],
      "stateMutability": "view",
      "type": "function"
    }
  ],
  "bytecode": "0x60806040526103e86000557fffffffffffffffffffffffffffffffffffffffffffffffffffffffffff67698060015561271060025534801561004057600080fd5b5060b78061004f6000396000f3fe6080604052348015600f57600080fd5b506004361060285760003560e01c8063486b721714602d575b600080fd5b60336047565b604051603e91906068565b60405180910390f35b6000600254905090565b6000819050919050565b6062816051565b82525050565b6000602082019050607b6000830184605b565b9291505056fea26469706673582212200f8df68e0ca30f9e49b30e6d64f8b9a1d762a64b323b1dce956a6ef1a968376f64736f6c63430008120033",
  "linkReferences": {},
  "deployedLinkReferences": {}
}