{"contracts/Integers.sol":{"Integers":{"abi":[{"inputs":[],"name":"getnumber","outputs":[{"internalType":"uint256","name":"","type":"uint256"}],"stateMutability":"view","type":"function"}],"evm":{"bytecode":{"linkReferences":{},"object":"60806040526103e86000557fffffffffffffffffffffffffffffffffffffffffffffffffffffffffff67698060015561271060025534801561004057600080fd5b5060b78061004f6000396000f3fe6080604052348015600f57600080fd5b506004361060285760003560e01c8063486b721714602d575b600080fd5b60336047565b604051603e91906068565b60405180910390f35b6000600254905090565b6000819050919050565b6062816051565b82525050565b6000602082019050607b6000830184605b565b9291505056fea26469706673582212200f8df68e0ca30f9e49b30e6d64f8b9a1d762a64b323b1dce956a6ef1a968376f64736f6c63430008120033","opcodes":"PUSH1 0x80 PUSH1 0x40 MSTORE PUSH2 0x3E8 PUSH1 0x0 SSTORE PUSH32 0xFFFFFFFFFFFFFFFFFFFFFFFFFFFFFFFFFFFFFFFFFFFFFFFFFFFFFFFFFF676980 PUSH1 0x1 SSTORE PUSH2 0x2710 PUSH1 0x2 SSTORE CALLVALUE DUP1 ISZERO PUSH2 0x40 JUMPI PUSH1 0x0 DUP1 REVERT JUMPDEST POP PUSH1 0xB7 DUP1 PUSH2 0x4F PUSH1 0x0 CODECOPY PUSH1 0x0 RETURN INVALID PUSH1 0x80 PUSH1 0x40 MSTORE CALLVALUE DUP1 ISZERO PUSH1 0xF JUMPI PUSH1 0x0 DUP1 REVERT JUMPDEST POP PUSH1 0x4 CALLDATASIZE LT PUSH1 0x28 JUMPI PUSH1 0x0 CALLDATALOAD PUSH1 0xE0 SHR DUP1 PUSH4 0x486B7217 EQ PUSH1 0x2D JUMPI JUMPDEST PUSH1 0x0 DUP1 REVERT JUMPDEST PUSH1 0x33 PUSH1 0x47 JUMP JUMPDEST PUSH1 0x40 MLOAD PUSH1 0x3E SWAP2 SWAP1 PUSH1 0x68 JUMP JUMPDEST PUSH1 0x40 MLOAD DUP1 SWAP2 SUB SWAP1 RETURN JUMPDEST PUSH1 0x0 PUSH1 0x2 SLOAD SWAP1 POP SWAP1 JUMP JUMPDEST PUSH1 0x0 DUP2 SWAP1 POP SWAP2 SWAP1 POP JUMP JUMPDEST PUSH1 0x62 DUP2 PUSH1 0x51 JUMP JUMPDEST DUP3 MSTORE POP POP JUMP JUMPDEST PUSH1 0x0 PUSH1 0x20 DUP3 ADD SWAP1 POP PUSH1 0x7B PUSH1 0x0 DUP4 ADD DUP5 PUSH1 0x5B JUMP JUMPDEST SWAP3 SWAP2 POP POP JUMP INVALID LOG2 PUSH5 0x6970667358 0x22 SLT KECCAK256 0xF DUP14 0xF6 DUP15 0xC LOG3 0xF SWAP15 0x49 0xB3 0xE PUSH14 0x64F8B9A1D762A64B323B1DCE956A PUSH15 0xF1A968376F64736F6C634300081200 CALLER "},"methodIdentifiers":{"getnumber()":"486b7217"}}}}}